{
  "contractName": "Project",
  "abi": [
    {
      "inputs": [
        {
          "internalType": "uint256",
          "name": "minimum",
          "type": "uint256"
        },
        {
          "internalType": "address",
          "name": "creator",
          "type": "address"
        },
        {
          "internalType": "address",
          "name": "renzinTokenAddress",
          "type": "address"
        }
      ],
      "stateMutability": "nonpayable",
      "type": "constructor"
    },
    {
      "inputs": [
        {
          "internalType": "address",
          "name": "",
          "type": "address"
        }
      ],
      "name": "approvers",
      "outputs": [
        {
          "internalType": "bool",
          "name": "",
          "type": "bool"
        }
      ],
      "stateMutability": "view",
      "type": "function"
    },
    {
      "inputs": [],
      "name": "approversCount",
      "outputs": [
        {
          "internalType": "uint256",
          "name": "",
          "type": "uint256"
        }
      ],
      "stateMutability": "view",
      "type": "function"
    },
    {
      "inputs": [],
      "name": "manager",
      "outputs": [
        {
          "internalType": "address",
          "name": "",
          "type": "address"
        }
      ],
      "stateMutability": "view",
      "type": "function"
    },
    {
      "inputs": [],
      "name": "minimumContribution",
      "outputs": [
        {
          "internalType": "uint256",
          "name": "",
          "type": "uint256"
        }
      ],
      "stateMutability": "view",
      "type": "function"
    },
    {
      "inputs": [
        {
          "internalType": "uint256",
          "name": "",
          "type": "uint256"
        }
      ],
      "name": "requests",
      "outputs": [
        {
          "internalType": "string",
          "name": "description",
          "type": "string"
        },
        {
          "internalType": "uint256",
          "name": "value",
          "type": "uint256"
        },
        {
          "internalType": "address",
          "name": "recipient",
          "type": "address"
        },
        {
          "internalType": "bool",
          "name": "complete",
          "type": "bool"
        },
        {
          "internalType": "uint256",
          "name": "approvalCount",
          "type": "uint256"
        }
      ],
      "stateMutability": "view",
      "type": "function"
    },
    {
      "inputs": [
        {
          "internalType": "uint256",
          "name": "_amount",
          "type": "uint256"
        }
      ],
      "name": "contribute",
      "outputs": [],
      "stateMutability": "nonpayable",
      "type": "function"
    },
    {
      "inputs": [
        {
          "internalType": "string",
          "name": "description",
          "type": "string"
        },
        {
          "internalType": "uint256",
          "name": "value",
          "type": "uint256"
        },
        {
          "internalType": "address",
          "name": "recipient",
          "type": "address"
        }
      ],
      "name": "createRequest",
      "outputs": [],
      "stateMutability": "nonpayable",
      "type": "function"
    },
    {
      "inputs": [
        {
          "internalType": "uint256",
          "name": "index",
          "type": "uint256"
        }
      ],
      "name": "approveRequest",
      "outputs": [],
      "stateMutability": "nonpayable",
      "type": "function"
    },
    {
      "inputs": [
        {
          "internalType": "uint256",
          "name": "index",
          "type": "uint256"
        }
      ],
      "name": "finaliseRequest",
      "outputs": [],
      "stateMutability": "nonpayable",
      "type": "function"
    },
    {
      "inputs": [],
      "name": "getSummary",
      "outputs": [
        {
          "internalType": "uint256",
          "name": "",
          "type": "uint256"
        },
        {
          "internalType": "uint256",
          "name": "",
          "type": "uint256"
        },
        {
          "internalType": "uint256",
          "name": "",
          "type": "uint256"
        },
        {
          "internalType": "uint256",
          "name": "",
          "type": "uint256"
        },
        {
          "internalType": "address",
          "name": "",
          "type": "address"
        }
      ],
      "stateMutability": "view",
      "type": "function"
    },
    {
      "inputs": [],
      "name": "getRequestsCount",
      "outputs": [
        {
          "internalType": "uint256",
          "name": "",
          "type": "uint256"
        }
      ],
      "stateMutability": "view",
      "type": "function"
    }
  ],
  "bytecode": "0x608060405260006006553480156200001657600080fd5b506040516200113a3803806200113a83398181016040528101906200003c919062000173565b81600360006101000a81548173ffffffffffffffffffffffffffffffffffffffff021916908373ffffffffffffffffffffffffffffffffffffffff1602179055508260048190555080600260006101000a81548173ffffffffffffffffffffffffffffffffffffffff021916908373ffffffffffffffffffffffffffffffffffffffff160217905550505050620001cf565b600080fd5b6000819050919050565b620000e881620000d3565b8114620000f457600080fd5b50565b6000815190506200010881620000dd565b92915050565b600073ffffffffffffffffffffffffffffffffffffffff82169050919050565b60006200013b826200010e565b9050919050565b6200014d816200012e565b81146200015957600080fd5b50565b6000815190506200016d8162000142565b92915050565b6000806000606084860312156200018f576200018e620000ce565b5b60006200019f86828701620000f7565b9350506020620001b2868287016200015c565b9250506040620001c5868287016200015c565b9150509250925092565b610f5b80620001df6000396000f3fe608060405234801561001057600080fd5b50600436106100a95760003560e01c806382fde0931161007157806382fde093146101705780638a9cfd551461018e578063937e09b1146101aa578063c1cbbca7146101c8578063d7d1bbdb146101e4578063e7b668b414610200576100a9565b80630a144391146100ae5780633410452a146100de5780634051ddac146100fc578063481c6a751461011e57806381d12c581461013c575b600080fd5b6100c860048036038101906100c39190610968565b61021c565b6040516100d591906109b0565b60405180910390f35b6100e661023c565b6040516100f391906109e4565b60405180910390f35b610104610245565b604051610115959493929190610a0e565b60405180910390f35b61012661028b565b6040516101339190610a61565b60405180910390f35b61015660048036038101906101519190610aa8565b6102b1565b604051610167959493929190610b6e565b60405180910390f35b61017861039c565b60405161018591906109e4565b60405180910390f35b6101a860048036038101906101a39190610cfd565b6103a2565b005b6101b26104ba565b6040516101bf91906109e4565b60405180910390f35b6101e260048036038101906101dd9190610aa8565b6104c0565b005b6101fe60048036038101906101f99190610aa8565b6105da565b005b61021a60048036038101906102159190610aa8565b610718565b005b60056020528060005260406000206000915054906101000a900460ff1681565b60008054905090565b600080600080600060045447600054600654600360009054906101000a900473ffffffffffffffffffffffffffffffffffffffff16945094509450945094509091929394565b600360009054906101000a900473ffffffffffffffffffffffffffffffffffffffff1681565b60016020528060005260406000206000915090508060000180546102d490610d9b565b80601f016020809104026020016040519081016040528092919081815260200182805461030090610d9b565b801561034d5780601f106103225761010080835404028352916020019161034d565b820191906000526020600020905b81548152906001019060200180831161033057829003601f168201915b5050505050908060010154908060020160009054906101000a900473ffffffffffffffffffffffffffffffffffffffff16908060020160149054906101000a900460ff16908060030154905085565b60065481565b600360009054906101000a900473ffffffffffffffffffffffffffffffffffffffff1673ffffffffffffffffffffffffffffffffffffffff163373ffffffffffffffffffffffffffffffffffffffff16146103fc57600080fd5b60006001600080600081548092919061041490610dfb565b919050558152602001908152602001600020905083816000019080519060200190610440929190610853565b50828160010181905550818160020160006101000a81548173ffffffffffffffffffffffffffffffffffffffff021916908373ffffffffffffffffffffffffffffffffffffffff16021790555060008160020160146101000a81548160ff0219169083151502179055506000816003018190555050505050565b60045481565b6000600260009054906101000a900473ffffffffffffffffffffffffffffffffffffffff1690508073ffffffffffffffffffffffffffffffffffffffff1663a9059cbb30846040518363ffffffff1660e01b8152600401610522929190610e43565b6020604051808303816000875af1158015610541573d6000803e3d6000fd5b505050506040513d601f19601f820116820180604052508101906105659190610e98565b506001600560003373ffffffffffffffffffffffffffffffffffffffff1673ffffffffffffffffffffffffffffffffffffffff16815260200190815260200160002060006101000a81548160ff021916908315150217905550600660008154809291906105d190610dfb565b91905055505050565b6000600160008381526020019081526020016000209050600560003373ffffffffffffffffffffffffffffffffffffffff1673ffffffffffffffffffffffffffffffffffffffff16815260200190815260200160002060009054906101000a900460ff1661064757600080fd5b8060040160003373ffffffffffffffffffffffffffffffffffffffff1673ffffffffffffffffffffffffffffffffffffffff16815260200190815260200160002060009054906101000a900460ff16156106a057600080fd5b8060030160008154809291906106b590610dfb565b919050555060018160040160003373ffffffffffffffffffffffffffffffffffffffff1673ffffffffffffffffffffffffffffffffffffffff16815260200190815260200160002060006101000a81548160ff0219169083151502179055505050565b600360009054906101000a900473ffffffffffffffffffffffffffffffffffffffff1673ffffffffffffffffffffffffffffffffffffffff163373ffffffffffffffffffffffffffffffffffffffff161461077257600080fd5b600060016000838152602001908152602001600020905060026006546107989190610ef4565b8160030154116107a757600080fd5b8060020160149054906101000a900460ff16156107c357600080fd5b8060020160009054906101000a900473ffffffffffffffffffffffffffffffffffffffff1673ffffffffffffffffffffffffffffffffffffffff166108fc82600101549081150290604051600060405180830381858888f19350505050158015610831573d6000803e3d6000fd5b5060018160020160146101000a81548160ff0219169083151502179055505050565b82805461085f90610d9b565b90600052602060002090601f01602090048101928261088157600085556108c8565b82601f1061089a57805160ff19168380011785556108c8565b828001600101855582156108c8579182015b828111156108c75782518255916020019190600101906108ac565b5b5090506108d591906108d9565b5090565b5b808211156108f25760008160009055506001016108da565b5090565b6000604051905090565b600080fd5b600080fd5b600073ffffffffffffffffffffffffffffffffffffffff82169050919050565b60006109358261090a565b9050919050565b6109458161092a565b811461095057600080fd5b50565b6000813590506109628161093c565b92915050565b60006020828403121561097e5761097d610900565b5b600061098c84828501610953565b91505092915050565b60008115159050919050565b6109aa81610995565b82525050565b60006020820190506109c560008301846109a1565b92915050565b6000819050919050565b6109de816109cb565b82525050565b60006020820190506109f960008301846109d5565b92915050565b610a088161092a565b82525050565b600060a082019050610a2360008301886109d5565b610a3060208301876109d5565b610a3d60408301866109d5565b610a4a60608301856109d5565b610a5760808301846109ff565b9695505050505050565b6000602082019050610a7660008301846109ff565b92915050565b610a85816109cb565b8114610a9057600080fd5b50565b600081359050610aa281610a7c565b92915050565b600060208284031215610abe57610abd610900565b5b6000610acc84828501610a93565b91505092915050565b600081519050919050565b600082825260208201905092915050565b60005b83811015610b0f578082015181840152602081019050610af4565b83811115610b1e576000848401525b50505050565b6000601f19601f8301169050919050565b6000610b4082610ad5565b610b4a8185610ae0565b9350610b5a818560208601610af1565b610b6381610b24565b840191505092915050565b600060a0820190508181036000830152610b888188610b35565b9050610b9760208301876109d5565b610ba460408301866109ff565b610bb160608301856109a1565b610bbe60808301846109d5565b9695505050505050565b600080fd5b600080fd5b7f4e487b7100000000000000000000000000000000000000000000000000000000600052604160045260246000fd5b610c0a82610b24565b810181811067ffffffffffffffff82111715610c2957610c28610bd2565b5b80604052505050565b6000610c3c6108f6565b9050610c488282610c01565b919050565b600067ffffffffffffffff821115610c6857610c67610bd2565b5b610c7182610b24565b9050602081019050919050565b82818337600083830152505050565b6000610ca0610c9b84610c4d565b610c32565b905082815260208101848484011115610cbc57610cbb610bcd565b5b610cc7848285610c7e565b509392505050565b600082601f830112610ce457610ce3610bc8565b5b8135610cf4848260208601610c8d565b91505092915050565b600080600060608486031215610d1657610d15610900565b5b600084013567ffffffffffffffff811115610d3457610d33610905565b5b610d4086828701610ccf565b9350506020610d5186828701610a93565b9250506040610d6286828701610953565b9150509250925092565b7f4e487b7100000000000000000000000000000000000000000000000000000000600052602260045260246000fd5b60006002820490506001821680610db357607f821691505b602082108103610dc657610dc5610d6c565b5b50919050565b7f4e487b7100000000000000000000000000000000000000000000000000000000600052601160045260246000fd5b6000610e06826109cb565b91507fffffffffffffffffffffffffffffffffffffffffffffffffffffffffffffffff8203610e3857610e37610dcc565b5b600182019050919050565b6000604082019050610e5860008301856109ff565b610e6560208301846109d5565b9392505050565b610e7581610995565b8114610e8057600080fd5b50565b600081519050610e9281610e6c565b92915050565b600060208284031215610eae57610ead610900565b5b6000610ebc84828501610e83565b91505092915050565b7f4e487b7100000000000000000000000000000000000000000000000000000000600052601260045260246000fd5b6000610eff826109cb565b9150610f0a836109cb565b925082610f1a57610f19610ec5565b5b82820490509291505056fea2646970667358221220feaee699e8e1a0a725156ce6cf448b1ee58539b72166c5916c93b0b52b5a968964736f6c634300080d0033",
  "immutableReferences": {},
  "source": "//SPDX-License-Identifier: UNLICENSED\r\npragma solidity ^0.8.0;\r\nimport \"@openzeppelin/contracts/token/ERC20/IERC20.sol\";\r\nimport \"./RenzinToken.sol\";\r\n\r\ncontract ProjectMain{\r\n    address[] public deployedProjects;    \r\n\r\n    address public renzinTokenAddress;    \r\n\r\n    constructor (address _renzinTokenAddress) {\r\n        renzinTokenAddress = _renzinTokenAddress;\r\n    }\r\n    \r\n    function createProject(uint minimum) public {\r\n        address newProject = address(new Project(minimum,msg.sender, renzinTokenAddress));        \r\n        deployedProjects.push(newProject);\r\n    }\r\n    \r\n    function getAllProjects() public view returns(address[] memory){\r\n        return deployedProjects;\r\n    }\r\n\r\n    function getLastProject() public view returns(address){\r\n        return deployedProjects[deployedProjects.length-1];\r\n    }\r\n\r\n}\r\n\r\ncontract Project{\r\n    \r\n    struct Request{\r\n        string description;\r\n        uint value;\r\n        address recipient;\r\n        bool complete;\r\n        uint approvalCount;\r\n        mapping(address => bool) approvals;\r\n    }\r\n    \r\n    uint numRequests;\r\n    mapping (uint => Request) public requests;    \r\n    address private rznTokenAddress;\r\n    // Request[] public requests;\r\n    address public manager;\r\n    uint public minimumContribution;\r\n    mapping(address => bool) public approvers;\r\n    uint public approversCount = 0;\r\n        \r\n    constructor(uint minimum, address creator, address renzinTokenAddress){\r\n        manager = creator;\r\n        minimumContribution = minimum;\r\n        rznTokenAddress = renzinTokenAddress;\r\n    }\r\n    \r\n    modifier restricted(){\r\n        require(msg.sender == manager);\r\n        _;\r\n    }\r\n    \r\n    function contribute(uint _amount) public{\r\n        // require(_amount > minimumContribution);\r\n        RenzinToken rt = RenzinToken(rznTokenAddress);\r\n        rt.transfer(address(this), _amount); \r\n        approvers[msg.sender] = true;\r\n        approversCount++;\r\n    }    \r\n    \r\n    function createRequest(string memory description, uint value, address recipient) public restricted{\r\n        // Request memory newRequest = Request({\r\n        //     description:description,\r\n        //     value:value,\r\n        //     recipient:recipient,\r\n        //     complete:false,\r\n        //     approvalCount:0\r\n        // });\r\n        // requests.push(newRequest);\r\n        \r\n        Request storage r = requests[numRequests++];\r\n        r.description = description;\r\n        r.value = value;\r\n        r.recipient = recipient;\r\n        r.complete = false;\r\n        r.approvalCount = 0;\r\n        \r\n        \r\n    }\r\n    \r\n    function approveRequest(uint index) public {\r\n        Request storage request = requests[index];\r\n        \r\n        require(approvers[msg.sender]);\r\n        require(!request.approvals[msg.sender]);\r\n        \r\n        request.approvalCount++;\r\n        request.approvals[msg.sender] = true;\r\n    }\r\n    \r\n    function finaliseRequest(uint index) public restricted{\r\n        Request storage request = requests[index];\r\n        \r\n        require(request.approvalCount > (approversCount/2));\r\n        require(!request.complete);\r\n        \r\n        payable(request.recipient).transfer(request.value);\r\n        request.complete = true;\r\n        \r\n    }\r\n\r\n    function getSummary() public view returns(uint, uint, uint,uint,address){\r\n        return(\r\n            minimumContribution,\r\n            address(this).balance,\r\n            numRequests,\r\n            approversCount,\r\n            manager\r\n        );\r\n    }\r\n\r\n    function getRequestsCount() public view returns(uint){\r\n        return numRequests;\r\n    }\r\n    \r\n}",
  "sourcePath": "I:\\final_year_project\\renzin\\contracts\\Project.sol",
  "compiler": {
    "name": "solc",
    "version": "0.8.13+commit.abaa5c0e.Emscripten.clang"
  },
  "schemaVersion": "3.4.4",
  "updatedAt": "2022-05-06T09:30:00.506Z",
  "devdoc": {
    "kind": "dev",
    "methods": {},
    "version": 1
  },
  "userdoc": {
    "kind": "user",
    "methods": {},
    "version": 1
  }
}