{
  "contractName": "Project",
  "abi": [
    {
      "inputs": [
        {
          "internalType": "uint256",
          "name": "minimum",
          "type": "uint256"
        },
        {
          "internalType": "address",
          "name": "creator",
          "type": "address"
        }
      ],
      "stateMutability": "nonpayable",
      "type": "constructor"
    },
    {
      "inputs": [
        {
          "internalType": "address",
          "name": "",
          "type": "address"
        }
      ],
      "name": "approvers",
      "outputs": [
        {
          "internalType": "bool",
          "name": "",
          "type": "bool"
        }
      ],
      "stateMutability": "view",
      "type": "function"
    },
    {
      "inputs": [],
      "name": "approversCount",
      "outputs": [
        {
          "internalType": "uint256",
          "name": "",
          "type": "uint256"
        }
      ],
      "stateMutability": "view",
      "type": "function"
    },
    {
      "inputs": [],
      "name": "manager",
      "outputs": [
        {
          "internalType": "address",
          "name": "",
          "type": "address"
        }
      ],
      "stateMutability": "view",
      "type": "function"
    },
    {
      "inputs": [],
      "name": "minimumContribution",
      "outputs": [
        {
          "internalType": "uint256",
          "name": "",
          "type": "uint256"
        }
      ],
      "stateMutability": "view",
      "type": "function"
    },
    {
      "inputs": [
        {
          "internalType": "uint256",
          "name": "",
          "type": "uint256"
        }
      ],
      "name": "requests",
      "outputs": [
        {
          "internalType": "string",
          "name": "description",
          "type": "string"
        },
        {
          "internalType": "uint256",
          "name": "value",
          "type": "uint256"
        },
        {
          "internalType": "address",
          "name": "recipient",
          "type": "address"
        },
        {
          "internalType": "bool",
          "name": "complete",
          "type": "bool"
        },
        {
          "internalType": "uint256",
          "name": "approvalCount",
          "type": "uint256"
        }
      ],
      "stateMutability": "view",
      "type": "function"
    },
    {
      "inputs": [],
      "name": "contribute",
      "outputs": [],
      "stateMutability": "payable",
      "type": "function"
    },
    {
      "inputs": [
        {
          "internalType": "string",
          "name": "description",
          "type": "string"
        },
        {
          "internalType": "uint256",
          "name": "value",
          "type": "uint256"
        },
        {
          "internalType": "address",
          "name": "recipient",
          "type": "address"
        }
      ],
      "name": "createRequest",
      "outputs": [],
      "stateMutability": "nonpayable",
      "type": "function"
    },
    {
      "inputs": [
        {
          "internalType": "uint256",
          "name": "index",
          "type": "uint256"
        }
      ],
      "name": "approveRequest",
      "outputs": [],
      "stateMutability": "nonpayable",
      "type": "function"
    },
    {
      "inputs": [
        {
          "internalType": "uint256",
          "name": "index",
          "type": "uint256"
        }
      ],
      "name": "finaliseRequest",
      "outputs": [],
      "stateMutability": "nonpayable",
      "type": "function"
    },
    {
      "inputs": [],
      "name": "getSummary",
      "outputs": [
        {
          "internalType": "uint256",
          "name": "",
          "type": "uint256"
        },
        {
          "internalType": "uint256",
          "name": "",
          "type": "uint256"
        },
        {
          "internalType": "uint256",
          "name": "",
          "type": "uint256"
        },
        {
          "internalType": "uint256",
          "name": "",
          "type": "uint256"
        },
        {
          "internalType": "address",
          "name": "",
          "type": "address"
        }
      ],
      "stateMutability": "view",
      "type": "function"
    },
    {
      "inputs": [],
      "name": "getRequestsCount",
      "outputs": [
        {
          "internalType": "uint256",
          "name": "",
          "type": "uint256"
        }
      ],
      "stateMutability": "view",
      "type": "function"
    }
  ],
  "bytecode": "0x608060405260006005553480156200001657600080fd5b506040516200102a3803806200102a83398181016040528101906200003c919062000131565b80600260006101000a81548173ffffffffffffffffffffffffffffffffffffffff021916908373ffffffffffffffffffffffffffffffffffffffff16021790555081600381905550505062000178565b600080fd5b6000819050919050565b620000a68162000091565b8114620000b257600080fd5b50565b600081519050620000c6816200009b565b92915050565b600073ffffffffffffffffffffffffffffffffffffffff82169050919050565b6000620000f982620000cc565b9050919050565b6200010b81620000ec565b81146200011757600080fd5b50565b6000815190506200012b8162000100565b92915050565b600080604083850312156200014b576200014a6200008c565b5b60006200015b85828601620000b5565b92505060206200016e858286016200011a565b9150509250929050565b610ea280620001886000396000f3fe60806040526004361061009c5760003560e01c806382fde0931161006457806382fde093146101a45780638a9cfd55146101cf578063937e09b1146101f8578063d7bb99ba14610223578063d7d1bbdb1461022d578063e7b668b4146102565761009c565b80630a144391146100a15780633410452a146100de5780634051ddac14610109578063481c6a751461013857806381d12c5814610163575b600080fd5b3480156100ad57600080fd5b506100c860048036038101906100c39190610931565b61027f565b6040516100d59190610979565b60405180910390f35b3480156100ea57600080fd5b506100f361029f565b60405161010091906109ad565b60405180910390f35b34801561011557600080fd5b5061011e6102a8565b60405161012f9594939291906109d7565b60405180910390f35b34801561014457600080fd5b5061014d6102ee565b60405161015a9190610a2a565b60405180910390f35b34801561016f57600080fd5b5061018a60048036038101906101859190610a71565b610314565b60405161019b959493929190610b37565b60405180910390f35b3480156101b057600080fd5b506101b96103ff565b6040516101c691906109ad565b60405180910390f35b3480156101db57600080fd5b506101f660048036038101906101f19190610cc6565b610405565b005b34801561020457600080fd5b5061020d61051d565b60405161021a91906109ad565b60405180910390f35b61022b610523565b005b34801561023957600080fd5b50610254600480360381019061024f9190610a71565b6105a3565b005b34801561026257600080fd5b5061027d60048036038101906102789190610a71565b6106e1565b005b60046020528060005260406000206000915054906101000a900460ff1681565b60008054905090565b600080600080600060035447600054600554600260009054906101000a900473ffffffffffffffffffffffffffffffffffffffff16945094509450945094509091929394565b600260009054906101000a900473ffffffffffffffffffffffffffffffffffffffff1681565b600160205280600052604060002060009150905080600001805461033790610d64565b80601f016020809104026020016040519081016040528092919081815260200182805461036390610d64565b80156103b05780601f10610385576101008083540402835291602001916103b0565b820191906000526020600020905b81548152906001019060200180831161039357829003601f168201915b5050505050908060010154908060020160009054906101000a900473ffffffffffffffffffffffffffffffffffffffff16908060020160149054906101000a900460ff16908060030154905085565b60055481565b600260009054906101000a900473ffffffffffffffffffffffffffffffffffffffff1673ffffffffffffffffffffffffffffffffffffffff163373ffffffffffffffffffffffffffffffffffffffff161461045f57600080fd5b60006001600080600081548092919061047790610dc4565b9190505581526020019081526020016000209050838160000190805190602001906104a392919061081c565b50828160010181905550818160020160006101000a81548173ffffffffffffffffffffffffffffffffffffffff021916908373ffffffffffffffffffffffffffffffffffffffff16021790555060008160020160146101000a81548160ff0219169083151502179055506000816003018190555050505050565b60035481565b600354341161053157600080fd5b6001600460003373ffffffffffffffffffffffffffffffffffffffff1673ffffffffffffffffffffffffffffffffffffffff16815260200190815260200160002060006101000a81548160ff0219169083151502179055506005600081548092919061059c90610dc4565b9190505550565b6000600160008381526020019081526020016000209050600460003373ffffffffffffffffffffffffffffffffffffffff1673ffffffffffffffffffffffffffffffffffffffff16815260200190815260200160002060009054906101000a900460ff1661061057600080fd5b8060040160003373ffffffffffffffffffffffffffffffffffffffff1673ffffffffffffffffffffffffffffffffffffffff16815260200190815260200160002060009054906101000a900460ff161561066957600080fd5b80600301600081548092919061067e90610dc4565b919050555060018160040160003373ffffffffffffffffffffffffffffffffffffffff1673ffffffffffffffffffffffffffffffffffffffff16815260200190815260200160002060006101000a81548160ff0219169083151502179055505050565b600260009054906101000a900473ffffffffffffffffffffffffffffffffffffffff1673ffffffffffffffffffffffffffffffffffffffff163373ffffffffffffffffffffffffffffffffffffffff161461073b57600080fd5b600060016000838152602001908152602001600020905060026005546107619190610e3b565b81600301541161077057600080fd5b8060020160149054906101000a900460ff161561078c57600080fd5b8060020160009054906101000a900473ffffffffffffffffffffffffffffffffffffffff1673ffffffffffffffffffffffffffffffffffffffff166108fc82600101549081150290604051600060405180830381858888f193505050501580156107fa573d6000803e3d6000fd5b5060018160020160146101000a81548160ff0219169083151502179055505050565b82805461082890610d64565b90600052602060002090601f01602090048101928261084a5760008555610891565b82601f1061086357805160ff1916838001178555610891565b82800160010185558215610891579182015b82811115610890578251825591602001919060010190610875565b5b50905061089e91906108a2565b5090565b5b808211156108bb5760008160009055506001016108a3565b5090565b6000604051905090565b600080fd5b600080fd5b600073ffffffffffffffffffffffffffffffffffffffff82169050919050565b60006108fe826108d3565b9050919050565b61090e816108f3565b811461091957600080fd5b50565b60008135905061092b81610905565b92915050565b600060208284031215610947576109466108c9565b5b60006109558482850161091c565b91505092915050565b60008115159050919050565b6109738161095e565b82525050565b600060208201905061098e600083018461096a565b92915050565b6000819050919050565b6109a781610994565b82525050565b60006020820190506109c2600083018461099e565b92915050565b6109d1816108f3565b82525050565b600060a0820190506109ec600083018861099e565b6109f9602083018761099e565b610a06604083018661099e565b610a13606083018561099e565b610a2060808301846109c8565b9695505050505050565b6000602082019050610a3f60008301846109c8565b92915050565b610a4e81610994565b8114610a5957600080fd5b50565b600081359050610a6b81610a45565b92915050565b600060208284031215610a8757610a866108c9565b5b6000610a9584828501610a5c565b91505092915050565b600081519050919050565b600082825260208201905092915050565b60005b83811015610ad8578082015181840152602081019050610abd565b83811115610ae7576000848401525b50505050565b6000601f19601f8301169050919050565b6000610b0982610a9e565b610b138185610aa9565b9350610b23818560208601610aba565b610b2c81610aed565b840191505092915050565b600060a0820190508181036000830152610b518188610afe565b9050610b60602083018761099e565b610b6d60408301866109c8565b610b7a606083018561096a565b610b87608083018461099e565b9695505050505050565b600080fd5b600080fd5b7f4e487b7100000000000000000000000000000000000000000000000000000000600052604160045260246000fd5b610bd382610aed565b810181811067ffffffffffffffff82111715610bf257610bf1610b9b565b5b80604052505050565b6000610c056108bf565b9050610c118282610bca565b919050565b600067ffffffffffffffff821115610c3157610c30610b9b565b5b610c3a82610aed565b9050602081019050919050565b82818337600083830152505050565b6000610c69610c6484610c16565b610bfb565b905082815260208101848484011115610c8557610c84610b96565b5b610c90848285610c47565b509392505050565b600082601f830112610cad57610cac610b91565b5b8135610cbd848260208601610c56565b91505092915050565b600080600060608486031215610cdf57610cde6108c9565b5b600084013567ffffffffffffffff811115610cfd57610cfc6108ce565b5b610d0986828701610c98565b9350506020610d1a86828701610a5c565b9250506040610d2b8682870161091c565b9150509250925092565b7f4e487b7100000000000000000000000000000000000000000000000000000000600052602260045260246000fd5b60006002820490506001821680610d7c57607f821691505b602082108103610d8f57610d8e610d35565b5b50919050565b7f4e487b7100000000000000000000000000000000000000000000000000000000600052601160045260246000fd5b6000610dcf82610994565b91507fffffffffffffffffffffffffffffffffffffffffffffffffffffffffffffffff8203610e0157610e00610d95565b5b600182019050919050565b7f4e487b7100000000000000000000000000000000000000000000000000000000600052601260045260246000fd5b6000610e4682610994565b9150610e5183610994565b925082610e6157610e60610e0c565b5b82820490509291505056fea26469706673582212207669b07239d90ca541d3c93bebe1fd2df411d214300ed9d7b2d701e08327d07564736f6c634300080d0033",
  "immutableReferences": {},
  "source": "//SPDX-License-Identifier: UNLICENSED\r\npragma solidity ^0.8.0;\r\n\r\n\r\ncontract ProjectMain{\r\n    address[] public deployedProjects;    \r\n    \r\n    function createProject(uint minimum) public {\r\n        address newProject = address(new Project(minimum,msg.sender));\r\n        \r\n        deployedProjects.push(newProject);\r\n    }\r\n    \r\n    function getAllProjects() public view returns(address[] memory){\r\n        return deployedProjects;\r\n    }\r\n\r\n    function getLastProject() public view returns(address){\r\n        return deployedProjects[deployedProjects.length-1];\r\n    }\r\n\r\n}\r\n\r\ncontract Project{\r\n    \r\n    struct Request{\r\n        string description;\r\n        uint value;\r\n        address recipient;\r\n        bool complete;\r\n        uint approvalCount;\r\n        mapping(address => bool) approvals;\r\n    }\r\n    \r\n    uint numRequests;\r\n    mapping (uint => Request) public requests;\r\n    \r\n    // Request[] public requests;\r\n    address public manager;\r\n    uint public minimumContribution;\r\n    mapping(address => bool) public approvers;\r\n    uint public approversCount = 0;\r\n    \r\n    \r\n    constructor(uint minimum, address creator){\r\n        manager = creator;\r\n        minimumContribution = minimum;\r\n    }\r\n    \r\n    modifier restricted(){\r\n        require(msg.sender == manager);\r\n        _;\r\n    }\r\n    \r\n    function contribute() public payable{\r\n        require(msg.value > minimumContribution);\r\n        approvers[msg.sender] = true;\r\n        approversCount++;\r\n    }\r\n    \r\n    function createRequest(string memory description, uint value, address recipient) public restricted{\r\n        // Request memory newRequest = Request({\r\n        //     description:description,\r\n        //     value:value,\r\n        //     recipient:recipient,\r\n        //     complete:false,\r\n        //     approvalCount:0\r\n        // });\r\n        // requests.push(newRequest);\r\n        \r\n        Request storage r = requests[numRequests++];\r\n        r.description = description;\r\n        r.value = value;\r\n        r.recipient = recipient;\r\n        r.complete = false;\r\n        r.approvalCount = 0;\r\n        \r\n        \r\n    }\r\n    \r\n    function approveRequest(uint index) public {\r\n        Request storage request = requests[index];\r\n        \r\n        require(approvers[msg.sender]);\r\n        require(!request.approvals[msg.sender]);\r\n        \r\n        request.approvalCount++;\r\n        request.approvals[msg.sender] = true;\r\n    }\r\n    \r\n    function finaliseRequest(uint index) public restricted{\r\n        Request storage request = requests[index];\r\n        \r\n        require(request.approvalCount > (approversCount/2));\r\n        require(!request.complete);\r\n        \r\n        payable(request.recipient).transfer(request.value);\r\n        request.complete = true;\r\n        \r\n    }\r\n\r\n    function getSummary() public view returns(uint, uint, uint,uint,address){\r\n        return(\r\n            minimumContribution,\r\n            address(this).balance,\r\n            numRequests,\r\n            approversCount,\r\n            manager\r\n        );\r\n    }\r\n\r\n    function getRequestsCount() public view returns(uint){\r\n        return numRequests;\r\n    }\r\n    \r\n}",
  "sourcePath": "I:\\projects\\final_year_project\\renzin\\contracts\\Project.sol",
  "compiler": {
    "name": "solc",
    "version": "0.8.13+commit.abaa5c0e.Emscripten.clang"
  },
  "schemaVersion": "3.4.6",
  "updatedAt": "2022-03-31T03:04:55.859Z",
  "devdoc": {
    "kind": "dev",
    "methods": {},
    "version": 1
  },
  "userdoc": {
    "kind": "user",
    "methods": {},
    "version": 1
  }
}