{
  "contractName": "Helloworld",
  "abi": [
    {
      "inputs": [
        {
          "internalType": "string",
          "name": "_message",
          "type": "string"
        }
      ],
      "stateMutability": "nonpayable",
      "type": "constructor"
    },
    {
      "inputs": [],
      "name": "message",
      "outputs": [
        {
          "internalType": "string",
          "name": "",
          "type": "string"
        }
      ],
      "stateMutability": "view",
      "type": "function",
      "constant": true
    },
    {
      "inputs": [],
      "name": "getMessage",
      "outputs": [
        {
          "internalType": "string",
          "name": "",
          "type": "string"
        }
      ],
      "stateMutability": "view",
      "type": "function",
      "constant": true
    },
    {
      "inputs": [
        {
          "internalType": "string",
          "name": "_message",
          "type": "string"
        }
      ],
      "name": "setMessage",
      "outputs": [],
      "stateMutability": "payable",
      "type": "function",
      "payable": true
    }
  ],
  "bytecode": "0x60806040523480156200001157600080fd5b506040516200098b3803806200098b8339818101604052810190620000379190620002a4565b80600090805190602001906200004f92919062000057565b505062000359565b828054620000659062000324565b90600052602060002090601f016020900481019282620000895760008555620000d5565b82601f10620000a457805160ff1916838001178555620000d5565b82800160010185558215620000d5579182015b82811115620000d4578251825591602001919060010190620000b7565b5b509050620000e49190620000e8565b5090565b5b8082111562000103576000816000905550600101620000e9565b5090565b6000604051905090565b600080fd5b600080fd5b600080fd5b600080fd5b6000601f19601f8301169050919050565b7f4e487b7100000000000000000000000000000000000000000000000000000000600052604160045260246000fd5b620001708262000125565b810181811067ffffffffffffffff8211171562000192576200019162000136565b5b80604052505050565b6000620001a762000107565b9050620001b5828262000165565b919050565b600067ffffffffffffffff821115620001d857620001d762000136565b5b620001e38262000125565b9050602081019050919050565b60005b8381101562000210578082015181840152602081019050620001f3565b8381111562000220576000848401525b50505050565b60006200023d6200023784620001ba565b6200019b565b9050828152602081018484840111156200025c576200025b62000120565b5b62000269848285620001f0565b509392505050565b600082601f8301126200028957620002886200011b565b5b81516200029b84826020860162000226565b91505092915050565b600060208284031215620002bd57620002bc62000111565b5b600082015167ffffffffffffffff811115620002de57620002dd62000116565b5b620002ec8482850162000271565b91505092915050565b7f4e487b7100000000000000000000000000000000000000000000000000000000600052602260045260246000fd5b600060028204905060018216806200033d57607f821691505b602082108103620003535762000352620002f5565b5b50919050565b61062280620003696000396000f3fe6080604052600436106100345760003560e01c8063368b877214610039578063ce6d41de14610055578063e21f37ce14610080575b600080fd5b610053600480360381019061004e919061042d565b6100ab565b005b34801561006157600080fd5b5061006a610110565b60405161007791906104fe565b60405180910390f35b34801561008c57600080fd5b506100956101a2565b6040516100a291906104fe565b60405180910390f35b670de0b6b3a76400003410156100f6576040517f08c379a00000000000000000000000000000000000000000000000000000000081526004016100ed9061056c565b60405180910390fd5b806000908051906020019061010c929190610230565b5050565b60606000805461011f906105bb565b80601f016020809104026020016040519081016040528092919081815260200182805461014b906105bb565b80156101985780601f1061016d57610100808354040283529160200191610198565b820191906000526020600020905b81548152906001019060200180831161017b57829003601f168201915b5050505050905090565b600080546101af906105bb565b80601f01602080910402602001604051908101604052809291908181526020018280546101db906105bb565b80156102285780601f106101fd57610100808354040283529160200191610228565b820191906000526020600020905b81548152906001019060200180831161020b57829003601f168201915b505050505081565b82805461023c906105bb565b90600052602060002090601f01602090048101928261025e57600085556102a5565b82601f1061027757805160ff19168380011785556102a5565b828001600101855582156102a5579182015b828111156102a4578251825591602001919060010190610289565b5b5090506102b291906102b6565b5090565b5b808211156102cf5760008160009055506001016102b7565b5090565b6000604051905090565b600080fd5b600080fd5b600080fd5b600080fd5b6000601f19601f8301169050919050565b7f4e487b7100000000000000000000000000000000000000000000000000000000600052604160045260246000fd5b61033a826102f1565b810181811067ffffffffffffffff8211171561035957610358610302565b5b80604052505050565b600061036c6102d3565b90506103788282610331565b919050565b600067ffffffffffffffff82111561039857610397610302565b5b6103a1826102f1565b9050602081019050919050565b82818337600083830152505050565b60006103d06103cb8461037d565b610362565b9050828152602081018484840111156103ec576103eb6102ec565b5b6103f78482856103ae565b509392505050565b600082601f830112610414576104136102e7565b5b81356104248482602086016103bd565b91505092915050565b600060208284031215610443576104426102dd565b5b600082013567ffffffffffffffff811115610461576104606102e2565b5b61046d848285016103ff565b91505092915050565b600081519050919050565b600082825260208201905092915050565b60005b838110156104b0578082015181840152602081019050610495565b838111156104bf576000848401525b50505050565b60006104d082610476565b6104da8185610481565b93506104ea818560208601610492565b6104f3816102f1565b840191505092915050565b6000602082019050818103600083015261051881846104c5565b905092915050565b7f4e6f7420656e6f7567682066756e647300000000000000000000000000000000600082015250565b6000610556601083610481565b915061056182610520565b602082019050919050565b6000602082019050818103600083015261058581610549565b9050919050565b7f4e487b7100000000000000000000000000000000000000000000000000000000600052602260045260246000fd5b600060028204905060018216806105d357607f821691505b6020821081036105e6576105e561058c565b5b5091905056fea2646970667358221220fcbfc93cb30bf793ff7a21bf1967bfc5db99eca35cfdfb6217697b96abb5be7364736f6c634300080d0033",
  "immutableReferences": {},
  "source": "// SPDX-License-Identifier: MIT\r\npragma solidity ^0.8.1;\r\n\r\ncontract Helloworld{\r\n\r\n    string public message;\r\n\r\n    constructor(string memory _message){\r\n        message = _message;\r\n    }\r\n\r\n    function getMessage() public view returns(string memory){\r\n        return message;\r\n    }\r\n\r\n    function setMessage(string memory _message) public payable{\r\n        require(msg.value >= 1 ether, \"Not enough funds\");\r\n        message = _message;\r\n    }\r\n}",
  "sourcePath": "I:\\projects\\final year project\\renzin\\contracts\\Helloworld.sol",
  "compiler": {
    "name": "solc",
    "version": "0.8.13+commit.abaa5c0e.Emscripten.clang"
  },
  "schemaVersion": "3.4.6",
  "updatedAt": "2022-03-26T10:46:20.270Z",
  "networkType": "ethereum",
  "devdoc": {
    "kind": "dev",
    "methods": {},
    "version": 1
  },
  "userdoc": {
    "kind": "user",
    "methods": {},
    "version": 1
  }
}